{
  "_format": "hh-sol-artifact-1",
  "contractName": "ConfidentialTokenFixed",
  "sourceName": "contracts/ConfidentialTokenFixed.sol",
  "abi": [
    {
      "inputs": [],
      "stateMutability": "nonpayable",
      "type": "constructor"
    },
    {
      "inputs": [
        {
          "internalType": "address",
          "name": "owner",
          "type": "address"
        }
      ],
      "name": "OwnableInvalidOwner",
      "type": "error"
    },
    {
      "inputs": [
        {
          "internalType": "address",
          "name": "account",
          "type": "address"
        }
      ],
      "name": "OwnableUnauthorizedAccount",
      "type": "error"
    },
    {
      "anonymous": false,
      "inputs": [
        {
          "indexed": true,
          "internalType": "address",
          "name": "to",
          "type": "address"
        },
        {
          "indexed": true,
          "internalType": "bytes32",
          "name": "encHash",
          "type": "bytes32"
        }
      ],
      "name": "ConfidentialMint",
      "type": "event"
    },
    {
      "anonymous": false,
      "inputs": [
        {
          "indexed": true,
          "internalType": "address",
          "name": "from",
          "type": "address"
        },
        {
          "indexed": true,
          "internalType": "address",
          "name": "to",
          "type": "address"
        },
        {
          "indexed": true,
          "internalType": "bytes32",
          "name": "encHash",
          "type": "bytes32"
        }
      ],
      "name": "ConfidentialTransfer",
      "type": "event"
    },
    {
      "anonymous": false,
      "inputs": [
        {
          "indexed": true,
          "internalType": "address",
          "name": "previousOwner",
          "type": "address"
        },
        {
          "indexed": true,
          "internalType": "address",
          "name": "newOwner",
          "type": "address"
        }
      ],
      "name": "OwnershipTransferred",
      "type": "event"
    },
    {
      "inputs": [],
      "name": "allowSelfBalanceDecrypt",
      "outputs": [],
      "stateMutability": "nonpayable",
      "type": "function"
    },
    {
      "inputs": [
        {
          "internalType": "address",
          "name": "account",
          "type": "address"
        }
      ],
      "name": "confidentialBalanceOf",
      "outputs": [
        {
          "internalType": "euint64",
          "name": "",
          "type": "bytes32"
        }
      ],
      "stateMutability": "view",
      "type": "function"
    },
    {
      "inputs": [],
      "name": "decimals",
      "outputs": [
        {
          "internalType": "uint8",
          "name": "",
          "type": "uint8"
        }
      ],
      "stateMutability": "view",
      "type": "function"
    },
    {
      "inputs": [
        {
          "internalType": "address",
          "name": "account",
          "type": "address"
        }
      ],
      "name": "getEncryptedBalance",
      "outputs": [
        {
          "internalType": "euint64",
          "name": "",
          "type": "bytes32"
        }
      ],
      "stateMutability": "view",
      "type": "function"
    },
    {
      "inputs": [
        {
          "internalType": "address",
          "name": "account",
          "type": "address"
        }
      ],
      "name": "initializeAddress",
      "outputs": [],
      "stateMutability": "nonpayable",
      "type": "function"
    },
    {
      "inputs": [
        {
          "internalType": "address",
          "name": "account",
          "type": "address"
        }
      ],
      "name": "isInitialized",
      "outputs": [
        {
          "internalType": "bool",
          "name": "",
          "type": "bool"
        }
      ],
      "stateMutability": "view",
      "type": "function"
    },
    {
      "inputs": [
        {
          "internalType": "address",
          "name": "to",
          "type": "address"
        },
        {
          "internalType": "externalEuint64",
          "name": "encAmount",
          "type": "bytes32"
        },
        {
          "internalType": "bytes",
          "name": "proof",
          "type": "bytes"
        }
      ],
      "name": "mintConfidential",
      "outputs": [],
      "stateMutability": "nonpayable",
      "type": "function"
    },
    {
      "inputs": [],
      "name": "name",
      "outputs": [
        {
          "internalType": "string",
          "name": "",
          "type": "string"
        }
      ],
      "stateMutability": "view",
      "type": "function"
    },
    {
      "inputs": [],
      "name": "owner",
      "outputs": [
        {
          "internalType": "address",
          "name": "",
          "type": "address"
        }
      ],
      "stateMutability": "view",
      "type": "function"
    },
    {
      "inputs": [],
      "name": "protocolId",
      "outputs": [
        {
          "internalType": "uint256",
          "name": "",
          "type": "uint256"
        }
      ],
      "stateMutability": "pure",
      "type": "function"
    },
    {
      "inputs": [],
      "name": "renounceOwnership",
      "outputs": [],
      "stateMutability": "nonpayable",
      "type": "function"
    },
    {
      "inputs": [],
      "name": "symbol",
      "outputs": [
        {
          "internalType": "string",
          "name": "",
          "type": "string"
        }
      ],
      "stateMutability": "view",
      "type": "function"
    },
    {
      "inputs": [
        {
          "internalType": "address",
          "name": "to",
          "type": "address"
        },
        {
          "internalType": "externalEuint64",
          "name": "encAmount",
          "type": "bytes32"
        },
        {
          "internalType": "bytes",
          "name": "proof",
          "type": "bytes"
        }
      ],
      "name": "transferConfidential",
      "outputs": [],
      "stateMutability": "nonpayable",
      "type": "function"
    },
    {
      "inputs": [
        {
          "internalType": "address",
          "name": "newOwner",
          "type": "address"
        }
      ],
      "name": "transferOwnership",
      "outputs": [],
      "stateMutability": "nonpayable",
      "type": "function"
    }
  ],
  "bytecode": "0x608060405234801561000f575f5ffd5b50338061003557604051631e4fbdf760e01b81525f600482015260240160405180910390fd5b61003e81610227565b506101b96100dd604080516080810182525f808252602082018190529181018290526060810191909152506040805160808101825273687820221192c5b662b25367f70076a37bc79b6c815273848b0066793bcc60346da1f49049357399b8d595602082015273a02cda4ca3a71d7c46997716f4283aa851c2881291810191909152731364cbbf2cdf5032c47d8226a6f6fbd2afcdacac606082015290565b80517f9e7b61f58c47dc699ac88507c4f5bb9f121c03808c5676a8078fe583e464970080546001600160a01b03199081166001600160a01b039384161790915560208301517f9e7b61f58c47dc699ac88507c4f5bb9f121c03808c5676a8078fe583e46497018054831691841691909117905560408301517f9e7b61f58c47dc699ac88507c4f5bb9f121c03808c5676a8078fe583e46497028054831691841691909117905560608301517f9e7b61f58c47dc699ac88507c4f5bb9f121c03808c5676a8078fe583e46497038054909216921691909117905550565b60408051808201909152601181527021b7b73334b232b73a34b0b62a37b5b2b760791b60208201526001906101ee908261030e565b506040805180820190915260028082526110d560f21b602083015290610214908261030e565b506003805460ff191660061790556103c8565b5f80546001600160a01b038381166001600160a01b0319831681178455604051919092169283917f8be0079c531659141344cd1fd0a4f28419497f9722a3daafe3b4186f6b6457e09190a35050565b634e487b7160e01b5f52604160045260245ffd5b600181811c9082168061029e57607f821691505b6020821081036102bc57634e487b7160e01b5f52602260045260245ffd5b50919050565b601f82111561030957805f5260205f20601f840160051c810160208510156102e75750805b601f840160051c820191505b81811015610306575f81556001016102f3565b50505b505050565b81516001600160401b0381111561032757610327610276565b61033b81610335845461028a565b846102c2565b6020601f82116001811461036d575f83156103565750848201515b5f19600385901b1c1916600184901b178455610306565b5f84815260208120601f198516915b8281101561039c578785015182556020948501946001909201910161037c565b50848210156103b957868401515f19600387901b60f8161c191681555b50505050600190811b01905550565b610eeb806103d55f395ff3fe608060405234801561000f575f5ffd5b50600436106100e5575f3560e01c80636b94d6301161008857806395d89b411161006357806395d89b41146101c1578063d60b347f146101c9578063da1f12ab14610204578063f2fde38b1461020c575f5ffd5b80636b94d6301461018c578063715018a61461019f5780638da5cb5b146101a7575f5ffd5b8063313ce567116100c3578063313ce5671461012f578063344ff1011461014e578063402dc4e41461014e578063493fb2c614610184575f5ffd5b806306fdde03146100e957806313651aad1461010757806316ddd2b51461011c575b5f5ffd5b6100f161021f565b6040516100fe9190610d5c565b60405180910390f35b61011a610115366004610d89565b6102ab565b005b61011a61012a366004610e0c565b6103ec565b60035461013c9060ff1681565b60405160ff90911681526020016100fe565b61017661015c366004610e0c565b6001600160a01b03165f9081526005602052604090205490565b6040519081526020016100fe565b61011a610465565b61011a61019a366004610d89565b61048d565b61011a610583565b5f546040516001600160a01b0390911681526020016100fe565b6100f1610596565b6101f46101d7366004610e0c565b6001600160a01b03165f9081526004602052604090205460ff1690565b60405190151581526020016100fe565b612711610176565b61011a61021a366004610e0c565b6105a3565b6001805461022c90610e25565b80601f016020809104026020016040519081016040528092919081815260200182805461025890610e25565b80156102a35780601f1061027a576101008083540402835291602001916102a3565b820191905f5260205f20905b81548152906001019060200180831161028657829003601f168201915b505050505081565b6102b4336105dd565b6102bd846105dd565b5f6102fd8484848080601f0160208091040260200160405190810160405280939291908181526020018383808284375f9201919091525061064892505050565b335f90815260056020526040808220546001600160a01b038916835290822054929350919061032c838561065c565b90505f61033a82858761068a565b9050610346848261069e565b335f9081526005602052604090205561035f83826106cc565b6001600160a01b038a165f90815260056020526040902055610380336106fa565b610389896106fa565b60408051602081018a90520160408051601f19818403018152908290528051602090910120906001600160a01b038b169033907f67500e8d0ed826d2194f514dd0d8124f35648ab6e3fb5e6ed867134cffe661e9905f90a4505050505050505050565b6001600160a01b0381165f9081526004602052604090205460ff16156104595760405162461bcd60e51b815260206004820152601360248201527f416c726561647920696e697469616c697a65640000000000000000000000000060448201526064015b60405180910390fd5b610462816105dd565b50565b61046e336105dd565b335f818152600560205260409020549061048990829061073a565b5050565b61049561074c565b61049e846105dd565b5f6104de8484848080601f0160208091040260200160405190810160405280939291908181526020018383808284375f9201919091525061064892505050565b6001600160a01b0386165f9081526005602052604090205490915061050390826106cc565b6001600160a01b0386165f90815260056020526040902055610524856106fa565b60408051602081018690520160405160208183030381529060405280519060200120856001600160a01b03167f24f7b780a65492b7c75492ae7eb38a9cf20c9f96aab7ceb336346d78f36ff7c760405160405180910390a35050505050565b61058b61074c565b6105945f610778565b565b6002805461022c90610e25565b6105ab61074c565b6001600160a01b0381166105d457604051631e4fbdf760e01b81525f6004820152602401610450565b61046281610778565b6001600160a01b0381165f9081526004602052604090205460ff16610462576001600160a01b0381165f908152600460205260408120805460ff19166001179055610627906107df565b6001600160a01b0382165f90815260056020526040902055610462816106fa565b5f610655838360056107fb565b9392505050565b5f8261066e5761066b5f6107df565b92505b8161067f5761067c5f6107df565b91505b61065583835f61091b565b5f6106968484846109fe565b949350505050565b5f826106b0576106ad5f6107df565b92505b816106c1576106be5f6107df565b91505b61065583835f610aa7565b5f826106de576106db5f6107df565b92505b816106ef576106ec5f6107df565b91505b61065583835f610b44565b6001600160a01b0381165f9081526005602052604090205461071b90610be1565b506001600160a01b0381165f9081526005602052604090205461048990825b5f6107458383610bf0565b5090919050565b5f546001600160a01b031633146105945760405163118cdaa760e01b8152336004820152602401610450565b5f80546001600160a01b038381167fffffffffffffffffffffffff0000000000000000000000000000000000000000831681178455604051919092169283917f8be0079c531659141344cd1fd0a4f28419497f9722a3daafe3b4186f6b6457e09190a35050565b5f6107f58267ffffffffffffffff166005610c79565b92915050565b7f9e7b61f58c47dc699ac88507c4f5bb9f121c03808c5676a8078fe583e46497015460405163196d0b9b60e01b81525f917f9e7b61f58c47dc699ac88507c4f5bb9f121c03808c5676a8078fe583e4649700916001600160a01b039091169063196d0b9b90610874908890339089908990600401610e7d565b6020604051808303815f875af1158015610890573d5f5f3e3d5ffd5b505050506040513d601f19601f820116820180604052508101906108b49190610eb3565b8154604051630f8e573b60e21b8152600481018390523360248201529193506001600160a01b031690633e395cec906044015f604051808303815f87803b1580156108fd575f5ffd5b505af115801561090f573d5f5f3e3d5ffd5b50505050509392505050565b5f5f821561092e5750600160f81b610931565b505f5b7f9e7b61f58c47dc699ac88507c4f5bb9f121c03808c5676a8078fe583e464970154604051637210768160e01b815260048101879052602481018690526001600160f81b0319831660448201527f9e7b61f58c47dc699ac88507c4f5bb9f121c03808c5676a8078fe583e4649700916001600160a01b0316906372107681906064015b6020604051808303815f875af11580156109d0573d5f5f3e3d5ffd5b505050506040513d601f19601f820116820180604052508101906109f49190610eb3565b9695505050505050565b5f807f9e7b61f58c47dc699ac88507c4f5bb9f121c03808c5676a8078fe583e46497006001810154604051637702dcff60e01b81526004810188905260248101879052604481018690529192506001600160a01b031690637702dcff906064016020604051808303815f875af1158015610a7a573d5f5f3e3d5ffd5b505050506040513d601f19601f82011682018060405250810190610a9e9190610eb3565b95945050505050565b5f5f8215610aba5750600160f81b610abd565b505f5b7f9e7b61f58c47dc699ac88507c4f5bb9f121c03808c5676a8078fe583e4649701546040516303056db360e31b815260048101879052602481018690526001600160f81b0319831660448201527f9e7b61f58c47dc699ac88507c4f5bb9f121c03808c5676a8078fe583e4649700916001600160a01b03169063182b6d98906064016109b4565b5f5f8215610b575750600160f81b610b5a565b505f5b7f9e7b61f58c47dc699ac88507c4f5bb9f121c03808c5676a8078fe583e46497015460405163022f65e760e31b815260048101879052602481018690526001600160f81b0319831660448201527f9e7b61f58c47dc699ac88507c4f5bb9f121c03808c5676a8078fe583e4649700916001600160a01b03169063117b2f38906064016109b4565b5f610bec8230610bf0565b5090565b5f7f9e7b61f58c47dc699ac88507c4f5bb9f121c03808c5676a8078fe583e46497008054604051635ca4b5b160e11b8152600481018690526001600160a01b03858116602483015292935091169063b9496b62906044015f604051808303815f87803b158015610c5e575f5ffd5b505af1158015610c70573d5f5f3e3d5ffd5b50505050505050565b7f9e7b61f58c47dc699ac88507c4f5bb9f121c03808c5676a8078fe583e464970154604051639cd07acb60e01b81525f917f9e7b61f58c47dc699ac88507c4f5bb9f121c03808c5676a8078fe583e4649700916001600160a01b0390911690639cd07acb90610cee9087908790600401610eca565b6020604051808303815f875af1158015610d0a573d5f5f3e3d5ffd5b505050506040513d601f19601f820116820180604052508101906106969190610eb3565b5f81518084528060208401602086015e5f602082860101526020601f19601f83011685010191505092915050565b602081525f6106556020830184610d2e565b80356001600160a01b0381168114610d84575f5ffd5b919050565b5f5f5f5f60608587031215610d9c575f5ffd5b610da585610d6e565b935060208501359250604085013567ffffffffffffffff811115610dc7575f5ffd5b8501601f81018713610dd7575f5ffd5b803567ffffffffffffffff811115610ded575f5ffd5b876020828401011115610dfe575f5ffd5b949793965060200194505050565b5f60208284031215610e1c575f5ffd5b61065582610d6e565b600181811c90821680610e3957607f821691505b602082108103610e5757634e487b7160e01b5f52602260045260245ffd5b50919050565b60548110610e7957634e487b7160e01b5f52602160045260245ffd5b9052565b8481526001600160a01b0384166020820152608060408201525f610ea46080830185610d2e565b9050610a9e6060830184610e5d565b5f60208284031215610ec3575f5ffd5b5051919050565b828152604081016106556020830184610e5d56fea164736f6c634300081b000a",
  "linkReferences": {},
  "deployedLinkReferences": {}
}