{
  "_format": "hh-sol-artifact-1",
  "contractName": "ConfidentialTokenExtended",
  "sourceName": "contracts/ConfidentialTokenExtended.sol",
  "abi": [
    {
      "inputs": [],
      "stateMutability": "nonpayable",
      "type": "constructor"
    },
    {
      "inputs": [
        {
          "internalType": "address",
          "name": "owner",
          "type": "address"
        }
      ],
      "name": "OwnableInvalidOwner",
      "type": "error"
    },
    {
      "inputs": [
        {
          "internalType": "address",
          "name": "account",
          "type": "address"
        }
      ],
      "name": "OwnableUnauthorizedAccount",
      "type": "error"
    },
    {
      "anonymous": false,
      "inputs": [
        {
          "indexed": true,
          "internalType": "address",
          "name": "owner",
          "type": "address"
        },
        {
          "indexed": true,
          "internalType": "address",
          "name": "spender",
          "type": "address"
        },
        {
          "indexed": true,
          "internalType": "bytes32",
          "name": "encHash",
          "type": "bytes32"
        }
      ],
      "name": "ConfidentialApproval",
      "type": "event"
    },
    {
      "anonymous": false,
      "inputs": [
        {
          "indexed": true,
          "internalType": "address",
          "name": "from",
          "type": "address"
        },
        {
          "indexed": false,
          "internalType": "uint256",
          "name": "count",
          "type": "uint256"
        }
      ],
      "name": "ConfidentialBatchTransfer",
      "type": "event"
    },
    {
      "anonymous": false,
      "inputs": [
        {
          "indexed": true,
          "internalType": "address",
          "name": "from",
          "type": "address"
        },
        {
          "indexed": true,
          "internalType": "bytes32",
          "name": "encHash",
          "type": "bytes32"
        }
      ],
      "name": "ConfidentialBurn",
      "type": "event"
    },
    {
      "anonymous": false,
      "inputs": [
        {
          "indexed": true,
          "internalType": "address",
          "name": "to",
          "type": "address"
        },
        {
          "indexed": true,
          "internalType": "bytes32",
          "name": "encHash",
          "type": "bytes32"
        }
      ],
      "name": "ConfidentialMint",
      "type": "event"
    },
    {
      "anonymous": false,
      "inputs": [
        {
          "indexed": true,
          "internalType": "address",
          "name": "from",
          "type": "address"
        },
        {
          "indexed": true,
          "internalType": "address",
          "name": "to",
          "type": "address"
        },
        {
          "indexed": true,
          "internalType": "bytes32",
          "name": "encHash",
          "type": "bytes32"
        }
      ],
      "name": "ConfidentialTransfer",
      "type": "event"
    },
    {
      "anonymous": false,
      "inputs": [
        {
          "indexed": true,
          "internalType": "address",
          "name": "previousOwner",
          "type": "address"
        },
        {
          "indexed": true,
          "internalType": "address",
          "name": "newOwner",
          "type": "address"
        }
      ],
      "name": "OwnershipTransferred",
      "type": "event"
    },
    {
      "inputs": [],
      "name": "MAX_BATCH",
      "outputs": [
        {
          "internalType": "uint256",
          "name": "",
          "type": "uint256"
        }
      ],
      "stateMutability": "view",
      "type": "function"
    },
    {
      "inputs": [],
      "name": "allowSelfBalanceDecrypt",
      "outputs": [],
      "stateMutability": "nonpayable",
      "type": "function"
    },
    {
      "inputs": [
        {
          "internalType": "address",
          "name": "spender",
          "type": "address"
        },
        {
          "internalType": "externalEuint64",
          "name": "encAmount",
          "type": "bytes32"
        },
        {
          "internalType": "bytes",
          "name": "proof",
          "type": "bytes"
        }
      ],
      "name": "approveConfidential",
      "outputs": [],
      "stateMutability": "nonpayable",
      "type": "function"
    },
    {
      "inputs": [
        {
          "internalType": "address[]",
          "name": "to",
          "type": "address[]"
        },
        {
          "internalType": "externalEuint64[]",
          "name": "encAmounts",
          "type": "bytes32[]"
        },
        {
          "internalType": "bytes",
          "name": "proof",
          "type": "bytes"
        }
      ],
      "name": "batchTransferConfidential",
      "outputs": [],
      "stateMutability": "nonpayable",
      "type": "function"
    },
    {
      "inputs": [
        {
          "internalType": "externalEuint64",
          "name": "encAmount",
          "type": "bytes32"
        },
        {
          "internalType": "bytes",
          "name": "proof",
          "type": "bytes"
        }
      ],
      "name": "burnConfidential",
      "outputs": [],
      "stateMutability": "nonpayable",
      "type": "function"
    },
    {
      "inputs": [
        {
          "internalType": "address",
          "name": "owner",
          "type": "address"
        },
        {
          "internalType": "address",
          "name": "spender",
          "type": "address"
        }
      ],
      "name": "confidentialAllowance",
      "outputs": [
        {
          "internalType": "euint64",
          "name": "",
          "type": "bytes32"
        }
      ],
      "stateMutability": "view",
      "type": "function"
    },
    {
      "inputs": [
        {
          "internalType": "address",
          "name": "account",
          "type": "address"
        }
      ],
      "name": "confidentialBalanceOf",
      "outputs": [
        {
          "internalType": "euint64",
          "name": "",
          "type": "bytes32"
        }
      ],
      "stateMutability": "view",
      "type": "function"
    },
    {
      "inputs": [],
      "name": "decimals",
      "outputs": [
        {
          "internalType": "uint8",
          "name": "",
          "type": "uint8"
        }
      ],
      "stateMutability": "view",
      "type": "function"
    },
    {
      "inputs": [],
      "name": "encryptedTotalSupply",
      "outputs": [
        {
          "internalType": "euint64",
          "name": "",
          "type": "bytes32"
        }
      ],
      "stateMutability": "view",
      "type": "function"
    },
    {
      "inputs": [
        {
          "internalType": "address",
          "name": "account",
          "type": "address"
        }
      ],
      "name": "getEncryptedBalance",
      "outputs": [
        {
          "internalType": "euint64",
          "name": "",
          "type": "bytes32"
        }
      ],
      "stateMutability": "view",
      "type": "function"
    },
    {
      "inputs": [
        {
          "internalType": "address",
          "name": "account",
          "type": "address"
        }
      ],
      "name": "initializeAddress",
      "outputs": [],
      "stateMutability": "nonpayable",
      "type": "function"
    },
    {
      "inputs": [
        {
          "internalType": "address",
          "name": "account",
          "type": "address"
        }
      ],
      "name": "isInitialized",
      "outputs": [
        {
          "internalType": "bool",
          "name": "",
          "type": "bool"
        }
      ],
      "stateMutability": "view",
      "type": "function"
    },
    {
      "inputs": [
        {
          "internalType": "address",
          "name": "to",
          "type": "address"
        },
        {
          "internalType": "externalEuint64",
          "name": "encAmount",
          "type": "bytes32"
        },
        {
          "internalType": "bytes",
          "name": "proof",
          "type": "bytes"
        }
      ],
      "name": "mintConfidential",
      "outputs": [],
      "stateMutability": "nonpayable",
      "type": "function"
    },
    {
      "inputs": [],
      "name": "name",
      "outputs": [
        {
          "internalType": "string",
          "name": "",
          "type": "string"
        }
      ],
      "stateMutability": "view",
      "type": "function"
    },
    {
      "inputs": [],
      "name": "owner",
      "outputs": [
        {
          "internalType": "address",
          "name": "",
          "type": "address"
        }
      ],
      "stateMutability": "view",
      "type": "function"
    },
    {
      "inputs": [],
      "name": "protocolId",
      "outputs": [
        {
          "internalType": "uint256",
          "name": "",
          "type": "uint256"
        }
      ],
      "stateMutability": "pure",
      "type": "function"
    },
    {
      "inputs": [],
      "name": "renounceOwnership",
      "outputs": [],
      "stateMutability": "nonpayable",
      "type": "function"
    },
    {
      "inputs": [],
      "name": "symbol",
      "outputs": [
        {
          "internalType": "string",
          "name": "",
          "type": "string"
        }
      ],
      "stateMutability": "view",
      "type": "function"
    },
    {
      "inputs": [
        {
          "internalType": "address",
          "name": "to",
          "type": "address"
        },
        {
          "internalType": "externalEuint64",
          "name": "encAmount",
          "type": "bytes32"
        },
        {
          "internalType": "bytes",
          "name": "proof",
          "type": "bytes"
        }
      ],
      "name": "transferConfidential",
      "outputs": [],
      "stateMutability": "nonpayable",
      "type": "function"
    },
    {
      "inputs": [
        {
          "internalType": "address",
          "name": "from",
          "type": "address"
        },
        {
          "internalType": "address",
          "name": "to",
          "type": "address"
        },
        {
          "internalType": "externalEuint64",
          "name": "encAmount",
          "type": "bytes32"
        },
        {
          "internalType": "bytes",
          "name": "proof",
          "type": "bytes"
        }
      ],
      "name": "transferFromConfidential",
      "outputs": [],
      "stateMutability": "nonpayable",
      "type": "function"
    },
    {
      "inputs": [
        {
          "internalType": "address",
          "name": "newOwner",
          "type": "address"
        }
      ],
      "name": "transferOwnership",
      "outputs": [],
      "stateMutability": "nonpayable",
      "type": "function"
    }
  ],
  "bytecode": "0x608060405234801561000f575f5ffd5b50338061003557604051631e4fbdf760e01b81525f600482015260240160405180910390fd5b61003e81610227565b506101b96100dd604080516080810182525f808252602082018190529181018290526060810191909152506040805160808101825273687820221192c5b662b25367f70076a37bc79b6c815273848b0066793bcc60346da1f49049357399b8d595602082015273a02cda4ca3a71d7c46997716f4283aa851c2881291810191909152731364cbbf2cdf5032c47d8226a6f6fbd2afcdacac606082015290565b80517f9e7b61f58c47dc699ac88507c4f5bb9f121c03808c5676a8078fe583e464970080546001600160a01b03199081166001600160a01b039384161790915560208301517f9e7b61f58c47dc699ac88507c4f5bb9f121c03808c5676a8078fe583e46497018054831691841691909117905560408301517f9e7b61f58c47dc699ac88507c4f5bb9f121c03808c5676a8078fe583e46497028054831691841691909117905560608301517f9e7b61f58c47dc699ac88507c4f5bb9f121c03808c5676a8078fe583e46497038054909216921691909117905550565b60408051808201909152601181527021b7b73334b232b73a34b0b62a37b5b2b760791b60208201526001906101ee908261030e565b506040805180820190915260028082526110d560f21b602083015290610214908261030e565b506003805460ff191660061790556103c8565b5f80546001600160a01b038381166001600160a01b0319831681178455604051919092169283917f8be0079c531659141344cd1fd0a4f28419497f9722a3daafe3b4186f6b6457e09190a35050565b634e487b7160e01b5f52604160045260245ffd5b600181811c9082168061029e57607f821691505b6020821081036102bc57634e487b7160e01b5f52602260045260245ffd5b50919050565b601f82111561030957805f5260205f20601f840160051c810160208510156102e75750805b601f840160051c820191505b81811015610306575f81556001016102f3565b50505b505050565b81516001600160401b0381111561032757610327610276565b61033b81610335845461028a565b846102c2565b6020601f82116001811461036d575f83156103565750848201515b5f19600385901b1c1916600184901b178455610306565b5f84815260208120601f198516915b8281101561039c578785015182556020948501946001909201910161037c565b50848210156103b957868401515f19600387901b60f8161c191681555b50505050600190811b01905550565b6118fd806103d55f395ff3fe608060405234801561000f575f5ffd5b506004361061016e575f3560e01c80636c8ecd49116100d257806395d89b4111610088578063da1f12ab11610063578063da1f12ab1461030e578063ee98b3b614610316578063f2fde38b14610329575f5ffd5b806395d89b41146102b8578063d3e79eba146102c0578063d60b347f146102d3575f5ffd5b806378fa204e116100b857806378fa204e146102835780638da5cb5b14610296578063950bff9f146102b0575f5ffd5b80636c8ecd4914610273578063715018a61461027b575f5ffd5b80633596ebf211610127578063402dc4e41161010d578063402dc4e4146101d7578063493fb2c6146102585780636b94d63014610260575f5ffd5b80633596ebf21461020d5780633e8fc3c114610245575f5ffd5b806316ddd2b51161015757806316ddd2b5146101a5578063313ce567146101b8578063344ff101146101d7575f5ffd5b806306fdde031461017257806313651aad14610190575b5f5ffd5b61017a61033c565b604051610187919061157f565b60405180910390f35b6101a361019e3660046115f1565b6103c8565b005b6101a36101b3366004611647565b610509565b6003546101c59060ff1681565b60405160ff9091168152602001610187565b6101ff6101e5366004611647565b6001600160a01b03165f9081526005602052604090205490565b604051908152602001610187565b6101ff61021b366004611660565b6001600160a01b039182165f90815260066020908152604080832093909416825291909152205490565b6101a3610253366004611691565b610582565b6101a3610742565b6101a361026e3660046115f1565b61076a565b6007546101ff565b6101a361087c565b6101a361029136600461173c565b61088f565b5f546040516001600160a01b039091168152602001610187565b6101ff606481565b61017a610b36565b6101a36102ce3660046115f1565b610b43565b6102fe6102e1366004611647565b6001600160a01b03165f9081526004602052604090205460ff1690565b6040519015158152602001610187565b6127116101ff565b6101a36103243660046117db565b610c26565b6101a3610337366004611647565b610d2f565b6001805461034990611823565b80601f016020809104026020016040519081016040528092919081815260200182805461037590611823565b80156103c05780601f10610397576101008083540402835291602001916103c0565b820191905f5260205f20905b8154815290600101906020018083116103a357829003601f168201915b505050505081565b6103d133610d69565b6103da84610d69565b5f61041a8484848080601f0160208091040260200160405190810160405280939291908181526020018383808284375f92019190915250610dd492505050565b335f90815260056020526040808220546001600160a01b03891683529082205492935091906104498385610de8565b90505f610457828587610e16565b90506104638482610e2a565b335f9081526005602052604090205561047c8382610e58565b6001600160a01b038a165f9081526005602052604090205561049d33610e86565b6104a689610e86565b60408051602081018a90520160408051601f19818403018152908290528051602090910120906001600160a01b038b169033907f67500e8d0ed826d2194f514dd0d8124f35648ab6e3fb5e6ed867134cffe661e9905f90a4505050505050505050565b6001600160a01b0381165f9081526004602052604090205460ff16156105765760405162461bcd60e51b815260206004820152601360248201527f416c726561647920696e697469616c697a65640000000000000000000000000060448201526064015b60405180910390fd5b61057f81610d69565b50565b61058b85610d69565b61059484610d69565b5f6105d48484848080601f0160208091040260200160405190810160405280939291908181526020018383808284375f92019190915250610dd492505050565b6001600160a01b0387165f9081526005602090815260408083205460068352818420338552909252822054929350919061060e8385610de8565b90505f61061c828587610e16565b90505f6106298483610de8565b90505f610637828685610e16565b90506106438682610e2a565b6001600160a01b03808e165f9081526005602052604080822093909355908d16815220546106719082610e58565b6001600160a01b038c165f908152600560205260409020556106938582610e2a565b6001600160a01b038d165f9081526006602090815260408083203384529091529020556106bf8c610e86565b6106c88b610e86565b6106d28c33610eca565b60408051602081018c905201604051602081830303815290604052805190602001208b6001600160a01b03168d6001600160a01b03167f67500e8d0ed826d2194f514dd0d8124f35648ab6e3fb5e6ed867134cffe661e960405160405180910390a4505050505050505050505050565b61074b33610d69565b335f8181526005602052604090205490610766908290610f5d565b5050565b610772610f6f565b61077b84610d69565b5f6107bb8484848080601f0160208091040260200160405190810160405280939291908181526020018383808284375f92019190915250610dd492505050565b6001600160a01b0386165f908152600560205260409020549091506107e09082610e58565b6001600160a01b0386165f908152600560205260409020556007546108059082610e58565b60075561081185610e86565b61081c600754610f9b565b5060408051602081018690520160405160208183030381529060405280519060200120856001600160a01b03167f24f7b780a65492b7c75492ae7eb38a9cf20c9f96aab7ceb336346d78f36ff7c760405160405180910390a35050505050565b610884610f6f565b61088d5f610faa565b565b848381146108df5760405162461bcd60e51b815260206004820152600f60248201527f4c656e677468206d69736d617463680000000000000000000000000000000000604482015260640161056d565b5f811180156108ef575060648111155b61093b5760405162461bcd60e51b815260206004820152601260248201527f496e76616c69642062617463682073697a650000000000000000000000000000604482015260640161056d565b61094433610d69565b335f90815260056020526040812054905b82811015610adc575f8989838181106109705761097061185b565b90506020020160208101906109859190611647565b905061099081610d69565b5f6109e88989858181106109a6576109a661185b565b9050602002013588888080601f0160208091040260200160405190810160405280939291908181526020018383808284375f92019190915250610dd492505050565b90505f6109f58583610de8565b90505f610a03828785610e16565b9050610a0f8682610e2a565b6001600160a01b0385165f90815260056020526040902054909650610a349082610e58565b6001600160a01b0385165f90815260056020526040902055610a5584610e86565b8a8a86818110610a6757610a6761185b565b90506020020135604051602001610a8091815260200190565b60408051601f19818403018152908290528051602090910120906001600160a01b0386169033907f67500e8d0ed826d2194f514dd0d8124f35648ab6e3fb5e6ed867134cffe661e9905f90a45050600190920191506109559050565b50335f818152600560205260409020829055610af790610e86565b60405182815233907f5a035b63604d7fa591f5716e92a0941e12d78776dd28054294185bf482eff1069060200160405180910390a25050505050505050565b6002805461034990611823565b610b4c33610d69565b610b5584610d69565b5f610b958484848080601f0160208091040260200160405190810160405280939291908181526020018383808284375f92019190915250610dd492505050565b335f8181526006602090815260408083206001600160a01b038b1684529091529020829055909150610bc79086610eca565b60408051602081018690520160408051601f19818403018152908290528051602090910120906001600160a01b0387169033907f69cdce6a7bba1c0ff2b0a79dfee32e85ba6babb3dae45a54f886da8f381c1e52905f90a45050505050565b610c2f33610d69565b5f610c6f8484848080601f0160208091040260200160405190810160405280939291908181526020018383808284375f92019190915250610dd492505050565b335f90815260056020526040812054919250610c8b8284610de8565b90505f610c99828486610e16565b9050610ca58382610e2a565b335f90815260056020526040902055600754610cc19082610e2a565b600755610ccd33610e86565b610cd8600754610f9b565b5060408051602081018990520160408051601f198184030181529082905280516020909101209033907f39c9e8dc543e17e80a1ff0a1cd4406660a004f4892e4034349b5015c0ac2b464905f90a350505050505050565b610d37610f6f565b6001600160a01b038116610d6057604051631e4fbdf760e01b81525f600482015260240161056d565b61057f81610faa565b6001600160a01b0381165f9081526004602052604090205460ff1661057f576001600160a01b0381165f908152600460205260408120805460ff19166001179055610db390611011565b6001600160a01b0382165f9081526005602052604090205561057f81610e86565b5f610de18383600561102d565b9392505050565b5f82610dfa57610df75f611011565b92505b81610e0b57610e085f611011565b91505b610de183835f61114d565b5f610e22848484611230565b949350505050565b5f82610e3c57610e395f611011565b92505b81610e4d57610e4a5f611011565b91505b610de183835f6112d9565b5f82610e6a57610e675f611011565b92505b81610e7b57610e785f611011565b91505b610de183835f611376565b6001600160a01b0381165f90815260056020526040902054610ea790610f9b565b506001600160a01b0381165f908152600560205260409020546107669082610f5d565b6001600160a01b038083165f90815260066020908152604080832093851683529290522054610ef890610f9b565b506001600160a01b038083165f90815260066020908152604080832093851683529290522054610f289083610f5d565b506001600160a01b038083165f90815260066020908152604080832093851683529290522054610f589082610f5d565b505050565b5f610f688383611413565b5090919050565b5f546001600160a01b0316331461088d5760405163118cdaa760e01b815233600482015260240161056d565b5f610fa68230611413565b5090565b5f80546001600160a01b038381167fffffffffffffffffffffffff0000000000000000000000000000000000000000831681178455604051919092169283917f8be0079c531659141344cd1fd0a4f28419497f9722a3daafe3b4186f6b6457e09190a35050565b5f6110278267ffffffffffffffff16600561149c565b92915050565b7f9e7b61f58c47dc699ac88507c4f5bb9f121c03808c5676a8078fe583e46497015460405163196d0b9b60e01b81525f917f9e7b61f58c47dc699ac88507c4f5bb9f121c03808c5676a8078fe583e4649700916001600160a01b039091169063196d0b9b906110a690889033908990899060040161188f565b6020604051808303815f875af11580156110c2573d5f5f3e3d5ffd5b505050506040513d601f19601f820116820180604052508101906110e691906118c5565b8154604051630f8e573b60e21b8152600481018390523360248201529193506001600160a01b031690633e395cec906044015f604051808303815f87803b15801561112f575f5ffd5b505af1158015611141573d5f5f3e3d5ffd5b50505050509392505050565b5f5f82156111605750600160f81b611163565b505f5b7f9e7b61f58c47dc699ac88507c4f5bb9f121c03808c5676a8078fe583e464970154604051637210768160e01b815260048101879052602481018690526001600160f81b0319831660448201527f9e7b61f58c47dc699ac88507c4f5bb9f121c03808c5676a8078fe583e4649700916001600160a01b0316906372107681906064015b6020604051808303815f875af1158015611202573d5f5f3e3d5ffd5b505050506040513d601f19601f8201168201806040525081019061122691906118c5565b9695505050505050565b5f807f9e7b61f58c47dc699ac88507c4f5bb9f121c03808c5676a8078fe583e46497006001810154604051637702dcff60e01b81526004810188905260248101879052604481018690529192506001600160a01b031690637702dcff906064016020604051808303815f875af11580156112ac573d5f5f3e3d5ffd5b505050506040513d601f19601f820116820180604052508101906112d091906118c5565b95945050505050565b5f5f82156112ec5750600160f81b6112ef565b505f5b7f9e7b61f58c47dc699ac88507c4f5bb9f121c03808c5676a8078fe583e4649701546040516303056db360e31b815260048101879052602481018690526001600160f81b0319831660448201527f9e7b61f58c47dc699ac88507c4f5bb9f121c03808c5676a8078fe583e4649700916001600160a01b03169063182b6d98906064016111e6565b5f5f82156113895750600160f81b61138c565b505f5b7f9e7b61f58c47dc699ac88507c4f5bb9f121c03808c5676a8078fe583e46497015460405163022f65e760e31b815260048101879052602481018690526001600160f81b0319831660448201527f9e7b61f58c47dc699ac88507c4f5bb9f121c03808c5676a8078fe583e4649700916001600160a01b03169063117b2f38906064016111e6565b5f7f9e7b61f58c47dc699ac88507c4f5bb9f121c03808c5676a8078fe583e46497008054604051635ca4b5b160e11b8152600481018690526001600160a01b03858116602483015292935091169063b9496b62906044015f604051808303815f87803b158015611481575f5ffd5b505af1158015611493573d5f5f3e3d5ffd5b50505050505050565b7f9e7b61f58c47dc699ac88507c4f5bb9f121c03808c5676a8078fe583e464970154604051639cd07acb60e01b81525f917f9e7b61f58c47dc699ac88507c4f5bb9f121c03808c5676a8078fe583e4649700916001600160a01b0390911690639cd07acb9061151190879087906004016118dc565b6020604051808303815f875af115801561152d573d5f5f3e3d5ffd5b505050506040513d601f19601f82011682018060405250810190610e2291906118c5565b5f81518084528060208401602086015e5f602082860101526020601f19601f83011685010191505092915050565b602081525f610de16020830184611551565b80356001600160a01b03811681146115a7575f5ffd5b919050565b5f5f83601f8401126115bc575f5ffd5b50813567ffffffffffffffff8111156115d3575f5ffd5b6020830191508360208285010111156115ea575f5ffd5b9250929050565b5f5f5f5f60608587031215611604575f5ffd5b61160d85611591565b935060208501359250604085013567ffffffffffffffff81111561162f575f5ffd5b61163b878288016115ac565b95989497509550505050565b5f60208284031215611657575f5ffd5b610de182611591565b5f5f60408385031215611671575f5ffd5b61167a83611591565b915061168860208401611591565b90509250929050565b5f5f5f5f5f608086880312156116a5575f5ffd5b6116ae86611591565b94506116bc60208701611591565b935060408601359250606086013567ffffffffffffffff8111156116de575f5ffd5b6116ea888289016115ac565b969995985093965092949392505050565b5f5f83601f84011261170b575f5ffd5b50813567ffffffffffffffff811115611722575f5ffd5b6020830191508360208260051b85010111156115ea575f5ffd5b5f5f5f5f5f5f60608789031215611751575f5ffd5b863567ffffffffffffffff811115611767575f5ffd5b61177389828a016116fb565b909750955050602087013567ffffffffffffffff811115611792575f5ffd5b61179e89828a016116fb565b909550935050604087013567ffffffffffffffff8111156117bd575f5ffd5b6117c989828a016115ac565b979a9699509497509295939492505050565b5f5f5f604084860312156117ed575f5ffd5b83359250602084013567ffffffffffffffff81111561180a575f5ffd5b611816868287016115ac565b9497909650939450505050565b600181811c9082168061183757607f821691505b60208210810361185557634e487b7160e01b5f52602260045260245ffd5b50919050565b634e487b7160e01b5f52603260045260245ffd5b6054811061188b57634e487b7160e01b5f52602160045260245ffd5b9052565b8481526001600160a01b0384166020820152608060408201525f6118b66080830185611551565b90506112d0606083018461186f565b5f602082840312156118d5575f5ffd5b5051919050565b82815260408101610de1602083018461186f56fea164736f6c634300081b000a",
  "linkReferences": {},
  "deployedLinkReferences": {}
}